{
    "contractName": "BlockAudio",
    "abi": [
        {
            "inputs": [],
            "name": "getAudioMessage",
            "outputs": [
                {
                    "internalType": "string",
                    "name": "",
                    "type": "string"
                }
            ],
            "stateMutability": "view",
            "type": "function"
        },
        {
            "inputs": [],
            "name": "getAudioMessage1",
            "outputs": [
                {
                    "internalType": "string",
                    "name": "",
                    "type": "string"
                }
            ],
            "stateMutability": "view",
            "type": "function"
        },
        {
            "inputs": [],
            "name": "getMp3Audio",
            "outputs": [
                {
                    "internalType": "string",
                    "name": "",
                    "type": "string"
                }
            ],
            "stateMutability": "view",
            "type": "function"
        },
        {
            "inputs": [
                {
                    "internalType": "string",
                    "name": "_voicemail",
                    "type": "string"
                }
            ],
            "name": "setAudioMessage",
            "outputs": [],
            "stateMutability": "nonpayable",
            "type": "function"
        },
        {
            "inputs": [
                {
                    "internalType": "string",
                    "name": "_voicemail",
                    "type": "string"
                }
            ],
            "name": "setAudioMessage1",
            "outputs": [],
            "stateMutability": "nonpayable",
            "type": "function"
        },
        {
            "inputs": [
                {
                    "internalType": "string",
                    "name": "_audio",
                    "type": "string"
                }
            ],
            "name": "setMp3Audio",
            "outputs": [],
            "stateMutability": "nonpayable",
            "type": "function"
        }
    ],
    "bytecode": "608060405234801561001057600080fd5b506104e6806100206000396000f3fe608060405234801561001057600080fd5b50600436106100625760003560e01c8063288dca9d14610067578063471634ed1461007c578063899fe70d1461008f5780639031f9d5146100a2578063b3c6821f146100c0578063c5112994146100c8575b600080fd5b61007a6100753660046102bc565b6100d0565b005b61007a61008a3660046102bc565b610109565b61007a61009d3660046102bc565b61013e565b6100aa610173565b6040516100b791906103fc565b60405180910390f35b6100aa610205565b6100aa610214565b806040516020016100e191906103be565b60405160208183030381529060405260029080519060200190610105929190610223565b5050565b8060405160200161011a919061036d565b60405160208183030381529060405260019080519060200190610105929190610223565b8060405160200161014f919061036d565b60405160208183030381529060405260009080519060200190610105929190610223565b6060600180546101829061045f565b80601f01602080910402602001604051908101604052809291908181526020018280546101ae9061045f565b80156101fb5780601f106101d0576101008083540402835291602001916101fb565b820191906000526020600020905b8154815290600101906020018083116101de57829003601f168201915b5050505050905090565b6060600080546101829061045f565b6060600280546101829061045f565b82805461022f9061045f565b90600052602060002090601f0160209004810192826102515760008555610297565b82601f1061026a57805160ff1916838001178555610297565b82800160010185558215610297579182015b8281111561029757825182559160200191906001019061027c565b506102a39291506102a7565b5090565b5b808211156102a357600081556001016102a8565b6000602082840312156102ce57600080fd5b813567ffffffffffffffff808211156102e657600080fd5b818401915084601f8301126102fa57600080fd5b81358181111561030c5761030c61049a565b604051601f8201601f19908116603f011681019083821181831017156103345761033461049a565b8160405282815287602084870101111561034d57600080fd5b826020860160208301376000928101602001929092525095945050505050565b7f646174613a617564696f2f7765626d3b636f646563733d6f7075733b626173658152620d8d0b60ea1b6020820152600082516103b181602385016020870161042f565b9190910160230192915050565b7519185d184e985d591a5bcbdb5c0cced8985cd94d8d0b60521b8152600082516103ef81601685016020870161042f565b9190910160160192915050565b602081526000825180602084015261041b81604085016020870161042f565b601f01601f19169190910160400192915050565b60005b8381101561044a578181015183820152602001610432565b83811115610459576000848401525b50505050565b600181811c9082168061047357607f821691505b6020821081141561049457634e487b7160e01b600052602260045260246000fd5b50919050565b634e487b7160e01b600052604160045260246000fdfea2646970667358221220d07e9f90627a246e431978800e4e1833802a327f5646023e9b3a103e70c9ca6f64736f6c63430008070033",
    "sourcePath": "c:/Users/m/blockaudio/packages/hardhat/contracts/BlockAudio.sol",
    "compiler": {
        "name": "solc",
        "version": "0.8.7+commit.e28d00a7"
    },
    "functionHashes": {
        "getAudioMessage()": "b3c6821f",
        "getAudioMessage1()": "9031f9d5",
        "getMp3Audio()": "c5112994",
        "setAudioMessage(string)": "899fe70d",
        "setAudioMessage1(string)": "471634ed",
        "setMp3Audio(string)": "288dca9d"
    },
    "gasEstimates": {
        "creation": {
            "codeDepositCost": "250800",
            "executionCost": "294",
            "totalCost": "251094"
        },
        "external": {
            "getAudioMessage()": "infinite",
            "getAudioMessage1()": "infinite",
            "getMp3Audio()": "infinite",
            "setAudioMessage(string)": "infinite",
            "setAudioMessage1(string)": "infinite",
            "setMp3Audio(string)": "infinite"
        }
    }
}